{
  "address": "0xCa8cFF1053b6e4FBDd8411Ce7a3512f23cc3a8a9",
  "abi": [
    {
      "inputs": [
        {
          "internalType": "string",
          "name": "_name",
          "type": "string"
        },
        {
          "internalType": "string",
          "name": "_symbol",
          "type": "string"
        },
        {
          "internalType": "address",
          "name": "_lzEndpoint",
          "type": "address"
        },
        {
          "internalType": "address",
          "name": "_delegate",
          "type": "address"
        }
      ],
      "stateMutability": "payable",
      "type": "constructor"
    },
    {
      "inputs": [],
      "name": "InvalidDelegate",
      "type": "error"
    },
    {
      "inputs": [],
      "name": "InvalidEndpointCall",
      "type": "error"
    },
    {
      "inputs": [],
      "name": "InvalidLocalDecimals",
      "type": "error"
    },
    {
      "inputs": [
        {
          "internalType": "bytes",
          "name": "options",
          "type": "bytes"
        }
      ],
      "name": "InvalidOptions",
      "type": "error"
    },
    {
      "inputs": [],
      "name": "LzTokenUnavailable",
      "type": "error"
    },
    {
      "inputs": [
        {
          "internalType": "uint32",
          "name": "eid",
          "type": "uint32"
        }
      ],
      "name": "NoPeer",
      "type": "error"
    },
    {
      "inputs": [
        {
          "internalType": "uint256",
          "name": "msgValue",
          "type": "uint256"
        }
      ],
      "name": "NotEnoughNative",
      "type": "error"
    },
    {
      "inputs": [
        {
          "internalType": "address",
          "name": "addr",
          "type": "address"
        }
      ],
      "name": "OnlyEndpoint",
      "type": "error"
    },
    {
      "inputs": [
        {
          "internalType": "uint32",
          "name": "eid",
          "type": "uint32"
        },
        {
          "internalType": "bytes32",
          "name": "sender",
          "type": "bytes32"
        }
      ],
      "name": "OnlyPeer",
      "type": "error"
    },
    {
      "inputs": [],
      "name": "OnlySelf",
      "type": "error"
    },
    {
      "inputs": [
        {
          "internalType": "address",
          "name": "owner",
          "type": "address"
        }
      ],
      "name": "OwnableInvalidOwner",
      "type": "error"
    },
    {
      "inputs": [
        {
          "internalType": "address",
          "name": "account",
          "type": "address"
        }
      ],
      "name": "OwnableUnauthorizedAccount",
      "type": "error"
    },
    {
      "inputs": [
        {
          "internalType": "address",
          "name": "token",
          "type": "address"
        }
      ],
      "name": "SafeERC20FailedOperation",
      "type": "error"
    },
    {
      "inputs": [
        {
          "internalType": "bytes",
          "name": "result",
          "type": "bytes"
        }
      ],
      "name": "SimulationResult",
      "type": "error"
    },
    {
      "inputs": [
        {
          "internalType": "uint256",
          "name": "amountLD",
          "type": "uint256"
        },
        {
          "internalType": "uint256",
          "name": "minAmountLD",
          "type": "uint256"
        }
      ],
      "name": "SlippageExceeded",
      "type": "error"
    },
    {
      "anonymous": false,
      "inputs": [
        {
          "indexed": false,
          "internalType": "bool",
          "name": "",
          "type": "bool"
        },
        {
          "indexed": false,
          "internalType": "bytes",
          "name": "",
          "type": "bytes"
        }
      ],
      "name": "CallResponseEvent",
      "type": "event"
    },
    {
      "anonymous": false,
      "inputs": [
        {
          "components": [
            {
              "internalType": "uint32",
              "name": "eid",
              "type": "uint32"
            },
            {
              "internalType": "uint16",
              "name": "msgType",
              "type": "uint16"
            },
            {
              "internalType": "bytes",
              "name": "options",
              "type": "bytes"
            }
          ],
          "indexed": false,
          "internalType": "struct EnforcedOptionParam[]",
          "name": "_enforcedOptions",
          "type": "tuple[]"
        }
      ],
      "name": "EnforcedOptionSet",
      "type": "event"
    },
    {
      "anonymous": false,
      "inputs": [
        {
          "indexed": false,
          "internalType": "address",
          "name": "inspector",
          "type": "address"
        }
      ],
      "name": "MsgInspectorSet",
      "type": "event"
    },
    {
      "anonymous": false,
      "inputs": [
        {
          "indexed": true,
          "internalType": "bytes32",
          "name": "guid",
          "type": "bytes32"
        },
        {
          "indexed": false,
          "internalType": "uint32",
          "name": "srcEid",
          "type": "uint32"
        },
        {
          "indexed": true,
          "internalType": "address",
          "name": "toAddress",
          "type": "address"
        },
        {
          "indexed": false,
          "internalType": "uint256",
          "name": "amountReceivedLD",
          "type": "uint256"
        }
      ],
      "name": "OFTReceived",
      "type": "event"
    },
    {
      "anonymous": false,
      "inputs": [
        {
          "indexed": true,
          "internalType": "bytes32",
          "name": "guid",
          "type": "bytes32"
        },
        {
          "indexed": false,
          "internalType": "uint32",
          "name": "dstEid",
          "type": "uint32"
        },
        {
          "indexed": true,
          "internalType": "address",
          "name": "fromAddress",
          "type": "address"
        },
        {
          "indexed": false,
          "internalType": "uint256",
          "name": "amountSentLD",
          "type": "uint256"
        },
        {
          "indexed": false,
          "internalType": "uint256",
          "name": "amountReceivedLD",
          "type": "uint256"
        }
      ],
      "name": "OFTSent",
      "type": "event"
    },
    {
      "anonymous": false,
      "inputs": [
        {
          "indexed": true,
          "internalType": "address",
          "name": "previousOwner",
          "type": "address"
        },
        {
          "indexed": true,
          "internalType": "address",
          "name": "newOwner",
          "type": "address"
        }
      ],
      "name": "OwnershipTransferred",
      "type": "event"
    },
    {
      "anonymous": false,
      "inputs": [
        {
          "indexed": false,
          "internalType": "uint32",
          "name": "eid",
          "type": "uint32"
        },
        {
          "indexed": false,
          "internalType": "bytes32",
          "name": "peer",
          "type": "bytes32"
        }
      ],
      "name": "PeerSet",
      "type": "event"
    },
    {
      "anonymous": false,
      "inputs": [
        {
          "indexed": false,
          "internalType": "address",
          "name": "preCrimeAddress",
          "type": "address"
        }
      ],
      "name": "PreCrimeSet",
      "type": "event"
    },
    {
      "anonymous": false,
      "inputs": [
        {
          "indexed": false,
          "internalType": "address",
          "name": "tokenAddress",
          "type": "address"
        }
      ],
      "name": "TokenCreated",
      "type": "event"
    },
    {
      "inputs": [],
      "name": "SEND",
      "outputs": [
        {
          "internalType": "uint16",
          "name": "",
          "type": "uint16"
        }
      ],
      "stateMutability": "view",
      "type": "function"
    },
    {
      "inputs": [],
      "name": "SEND_AND_CALL",
      "outputs": [
        {
          "internalType": "uint16",
          "name": "",
          "type": "uint16"
        }
      ],
      "stateMutability": "view",
      "type": "function"
    },
    {
      "inputs": [
        {
          "components": [
            {
              "internalType": "uint32",
              "name": "srcEid",
              "type": "uint32"
            },
            {
              "internalType": "bytes32",
              "name": "sender",
              "type": "bytes32"
            },
            {
              "internalType": "uint64",
              "name": "nonce",
              "type": "uint64"
            }
          ],
          "internalType": "struct Origin",
          "name": "origin",
          "type": "tuple"
        }
      ],
      "name": "allowInitializePath",
      "outputs": [
        {
          "internalType": "bool",
          "name": "",
          "type": "bool"
        }
      ],
      "stateMutability": "view",
      "type": "function"
    },
    {
      "inputs": [],
      "name": "approvalRequired",
      "outputs": [
        {
          "internalType": "bool",
          "name": "",
          "type": "bool"
        }
      ],
      "stateMutability": "pure",
      "type": "function"
    },
    {
      "inputs": [
        {
          "internalType": "uint32",
          "name": "_eid",
          "type": "uint32"
        },
        {
          "internalType": "uint16",
          "name": "_msgType",
          "type": "uint16"
        },
        {
          "internalType": "bytes",
          "name": "_extraOptions",
          "type": "bytes"
        }
      ],
      "name": "combineOptions",
      "outputs": [
        {
          "internalType": "bytes",
          "name": "",
          "type": "bytes"
        }
      ],
      "stateMutability": "view",
      "type": "function"
    },
    {
      "inputs": [],
      "name": "decimalConversionRate",
      "outputs": [
        {
          "internalType": "uint256",
          "name": "",
          "type": "uint256"
        }
      ],
      "stateMutability": "view",
      "type": "function"
    },
    {
      "inputs": [],
      "name": "endpoint",
      "outputs": [
        {
          "internalType": "contract ILayerZeroEndpointV2",
          "name": "",
          "type": "address"
        }
      ],
      "stateMutability": "view",
      "type": "function"
    },
    {
      "inputs": [
        {
          "internalType": "uint32",
          "name": "eid",
          "type": "uint32"
        },
        {
          "internalType": "uint16",
          "name": "msgType",
          "type": "uint16"
        }
      ],
      "name": "enforcedOptions",
      "outputs": [
        {
          "internalType": "bytes",
          "name": "enforcedOption",
          "type": "bytes"
        }
      ],
      "stateMutability": "view",
      "type": "function"
    },
    {
      "inputs": [],
      "name": "finiteTotalSupplyType",
      "outputs": [
        {
          "internalType": "bool",
          "name": "",
          "type": "bool"
        }
      ],
      "stateMutability": "view",
      "type": "function"
    },
    {
      "inputs": [],
      "name": "htsTokenAddress",
      "outputs": [
        {
          "internalType": "address",
          "name": "",
          "type": "address"
        }
      ],
      "stateMutability": "view",
      "type": "function"
    },
    {
      "inputs": [
        {
          "components": [
            {
              "internalType": "uint32",
              "name": "srcEid",
              "type": "uint32"
            },
            {
              "internalType": "bytes32",
              "name": "sender",
              "type": "bytes32"
            },
            {
              "internalType": "uint64",
              "name": "nonce",
              "type": "uint64"
            }
          ],
          "internalType": "struct Origin",
          "name": "",
          "type": "tuple"
        },
        {
          "internalType": "bytes",
          "name": "",
          "type": "bytes"
        },
        {
          "internalType": "address",
          "name": "_sender",
          "type": "address"
        }
      ],
      "name": "isComposeMsgSender",
      "outputs": [
        {
          "internalType": "bool",
          "name": "",
          "type": "bool"
        }
      ],
      "stateMutability": "view",
      "type": "function"
    },
    {
      "inputs": [
        {
          "internalType": "uint32",
          "name": "_eid",
          "type": "uint32"
        },
        {
          "internalType": "bytes32",
          "name": "_peer",
          "type": "bytes32"
        }
      ],
      "name": "isPeer",
      "outputs": [
        {
          "internalType": "bool",
          "name": "",
          "type": "bool"
        }
      ],
      "stateMutability": "view",
      "type": "function"
    },
    {
      "inputs": [
        {
          "components": [
            {
              "internalType": "uint32",
              "name": "srcEid",
              "type": "uint32"
            },
            {
              "internalType": "bytes32",
              "name": "sender",
              "type": "bytes32"
            },
            {
              "internalType": "uint64",
              "name": "nonce",
              "type": "uint64"
            }
          ],
          "internalType": "struct Origin",
          "name": "_origin",
          "type": "tuple"
        },
        {
          "internalType": "bytes32",
          "name": "_guid",
          "type": "bytes32"
        },
        {
          "internalType": "bytes",
          "name": "_message",
          "type": "bytes"
        },
        {
          "internalType": "address",
          "name": "_executor",
          "type": "address"
        },
        {
          "internalType": "bytes",
          "name": "_extraData",
          "type": "bytes"
        }
      ],
      "name": "lzReceive",
      "outputs": [],
      "stateMutability": "payable",
      "type": "function"
    },
    {
      "inputs": [
        {
          "components": [
            {
              "components": [
                {
                  "internalType": "uint32",
                  "name": "srcEid",
                  "type": "uint32"
                },
                {
                  "internalType": "bytes32",
                  "name": "sender",
                  "type": "bytes32"
                },
                {
                  "internalType": "uint64",
                  "name": "nonce",
                  "type": "uint64"
                }
              ],
              "internalType": "struct Origin",
              "name": "origin",
              "type": "tuple"
            },
            {
              "internalType": "uint32",
              "name": "dstEid",
              "type": "uint32"
            },
            {
              "internalType": "address",
              "name": "receiver",
              "type": "address"
            },
            {
              "internalType": "bytes32",
              "name": "guid",
              "type": "bytes32"
            },
            {
              "internalType": "uint256",
              "name": "value",
              "type": "uint256"
            },
            {
              "internalType": "address",
              "name": "executor",
              "type": "address"
            },
            {
              "internalType": "bytes",
              "name": "message",
              "type": "bytes"
            },
            {
              "internalType": "bytes",
              "name": "extraData",
              "type": "bytes"
            }
          ],
          "internalType": "struct InboundPacket[]",
          "name": "_packets",
          "type": "tuple[]"
        }
      ],
      "name": "lzReceiveAndRevert",
      "outputs": [],
      "stateMutability": "payable",
      "type": "function"
    },
    {
      "inputs": [
        {
          "components": [
            {
              "internalType": "uint32",
              "name": "srcEid",
              "type": "uint32"
            },
            {
              "internalType": "bytes32",
              "name": "sender",
              "type": "bytes32"
            },
            {
              "internalType": "uint64",
              "name": "nonce",
              "type": "uint64"
            }
          ],
          "internalType": "struct Origin",
          "name": "_origin",
          "type": "tuple"
        },
        {
          "internalType": "bytes32",
          "name": "_guid",
          "type": "bytes32"
        },
        {
          "internalType": "bytes",
          "name": "_message",
          "type": "bytes"
        },
        {
          "internalType": "address",
          "name": "_executor",
          "type": "address"
        },
        {
          "internalType": "bytes",
          "name": "_extraData",
          "type": "bytes"
        }
      ],
      "name": "lzReceiveSimulate",
      "outputs": [],
      "stateMutability": "payable",
      "type": "function"
    },
    {
      "inputs": [],
      "name": "msgInspector",
      "outputs": [
        {
          "internalType": "address",
          "name": "",
          "type": "address"
        }
      ],
      "stateMutability": "view",
      "type": "function"
    },
    {
      "inputs": [
        {
          "internalType": "uint32",
          "name": "",
          "type": "uint32"
        },
        {
          "internalType": "bytes32",
          "name": "",
          "type": "bytes32"
        }
      ],
      "name": "nextNonce",
      "outputs": [
        {
          "internalType": "uint64",
          "name": "nonce",
          "type": "uint64"
        }
      ],
      "stateMutability": "view",
      "type": "function"
    },
    {
      "inputs": [],
      "name": "oApp",
      "outputs": [
        {
          "internalType": "address",
          "name": "",
          "type": "address"
        }
      ],
      "stateMutability": "view",
      "type": "function"
    },
    {
      "inputs": [],
      "name": "oAppVersion",
      "outputs": [
        {
          "internalType": "uint64",
          "name": "senderVersion",
          "type": "uint64"
        },
        {
          "internalType": "uint64",
          "name": "receiverVersion",
          "type": "uint64"
        }
      ],
      "stateMutability": "pure",
      "type": "function"
    },
    {
      "inputs": [],
      "name": "oftVersion",
      "outputs": [
        {
          "internalType": "bytes4",
          "name": "interfaceId",
          "type": "bytes4"
        },
        {
          "internalType": "uint64",
          "name": "version",
          "type": "uint64"
        }
      ],
      "stateMutability": "pure",
      "type": "function"
    },
    {
      "inputs": [],
      "name": "owner",
      "outputs": [
        {
          "internalType": "address",
          "name": "",
          "type": "address"
        }
      ],
      "stateMutability": "view",
      "type": "function"
    },
    {
      "inputs": [
        {
          "internalType": "uint32",
          "name": "eid",
          "type": "uint32"
        }
      ],
      "name": "peers",
      "outputs": [
        {
          "internalType": "bytes32",
          "name": "peer",
          "type": "bytes32"
        }
      ],
      "stateMutability": "view",
      "type": "function"
    },
    {
      "inputs": [],
      "name": "preCrime",
      "outputs": [
        {
          "internalType": "address",
          "name": "",
          "type": "address"
        }
      ],
      "stateMutability": "view",
      "type": "function"
    },
    {
      "inputs": [
        {
          "components": [
            {
              "internalType": "uint32",
              "name": "dstEid",
              "type": "uint32"
            },
            {
              "internalType": "bytes32",
              "name": "to",
              "type": "bytes32"
            },
            {
              "internalType": "uint256",
              "name": "amountLD",
              "type": "uint256"
            },
            {
              "internalType": "uint256",
              "name": "minAmountLD",
              "type": "uint256"
            },
            {
              "internalType": "bytes",
              "name": "extraOptions",
              "type": "bytes"
            },
            {
              "internalType": "bytes",
              "name": "composeMsg",
              "type": "bytes"
            },
            {
              "internalType": "bytes",
              "name": "oftCmd",
              "type": "bytes"
            }
          ],
          "internalType": "struct SendParam",
          "name": "_sendParam",
          "type": "tuple"
        }
      ],
      "name": "quoteOFT",
      "outputs": [
        {
          "components": [
            {
              "internalType": "uint256",
              "name": "minAmountLD",
              "type": "uint256"
            },
            {
              "internalType": "uint256",
              "name": "maxAmountLD",
              "type": "uint256"
            }
          ],
          "internalType": "struct OFTLimit",
          "name": "oftLimit",
          "type": "tuple"
        },
        {
          "components": [
            {
              "internalType": "int256",
              "name": "feeAmountLD",
              "type": "int256"
            },
            {
              "internalType": "string",
              "name": "description",
              "type": "string"
            }
          ],
          "internalType": "struct OFTFeeDetail[]",
          "name": "oftFeeDetails",
          "type": "tuple[]"
        },
        {
          "components": [
            {
              "internalType": "uint256",
              "name": "amountSentLD",
              "type": "uint256"
            },
            {
              "internalType": "uint256",
              "name": "amountReceivedLD",
              "type": "uint256"
            }
          ],
          "internalType": "struct OFTReceipt",
          "name": "oftReceipt",
          "type": "tuple"
        }
      ],
      "stateMutability": "view",
      "type": "function"
    },
    {
      "inputs": [
        {
          "components": [
            {
              "internalType": "uint32",
              "name": "dstEid",
              "type": "uint32"
            },
            {
              "internalType": "bytes32",
              "name": "to",
              "type": "bytes32"
            },
            {
              "internalType": "uint256",
              "name": "amountLD",
              "type": "uint256"
            },
            {
              "internalType": "uint256",
              "name": "minAmountLD",
              "type": "uint256"
            },
            {
              "internalType": "bytes",
              "name": "extraOptions",
              "type": "bytes"
            },
            {
              "internalType": "bytes",
              "name": "composeMsg",
              "type": "bytes"
            },
            {
              "internalType": "bytes",
              "name": "oftCmd",
              "type": "bytes"
            }
          ],
          "internalType": "struct SendParam",
          "name": "_sendParam",
          "type": "tuple"
        },
        {
          "internalType": "bool",
          "name": "_payInLzToken",
          "type": "bool"
        }
      ],
      "name": "quoteSend",
      "outputs": [
        {
          "components": [
            {
              "internalType": "uint256",
              "name": "nativeFee",
              "type": "uint256"
            },
            {
              "internalType": "uint256",
              "name": "lzTokenFee",
              "type": "uint256"
            }
          ],
          "internalType": "struct MessagingFee",
          "name": "msgFee",
          "type": "tuple"
        }
      ],
      "stateMutability": "view",
      "type": "function"
    },
    {
      "inputs": [],
      "name": "renounceOwnership",
      "outputs": [],
      "stateMutability": "nonpayable",
      "type": "function"
    },
    {
      "inputs": [
        {
          "components": [
            {
              "internalType": "uint32",
              "name": "dstEid",
              "type": "uint32"
            },
            {
              "internalType": "bytes32",
              "name": "to",
              "type": "bytes32"
            },
            {
              "internalType": "uint256",
              "name": "amountLD",
              "type": "uint256"
            },
            {
              "internalType": "uint256",
              "name": "minAmountLD",
              "type": "uint256"
            },
            {
              "internalType": "bytes",
              "name": "extraOptions",
              "type": "bytes"
            },
            {
              "internalType": "bytes",
              "name": "composeMsg",
              "type": "bytes"
            },
            {
              "internalType": "bytes",
              "name": "oftCmd",
              "type": "bytes"
            }
          ],
          "internalType": "struct SendParam",
          "name": "_sendParam",
          "type": "tuple"
        },
        {
          "components": [
            {
              "internalType": "uint256",
              "name": "nativeFee",
              "type": "uint256"
            },
            {
              "internalType": "uint256",
              "name": "lzTokenFee",
              "type": "uint256"
            }
          ],
          "internalType": "struct MessagingFee",
          "name": "_fee",
          "type": "tuple"
        },
        {
          "internalType": "address",
          "name": "_refundAddress",
          "type": "address"
        }
      ],
      "name": "send",
      "outputs": [
        {
          "components": [
            {
              "internalType": "bytes32",
              "name": "guid",
              "type": "bytes32"
            },
            {
              "internalType": "uint64",
              "name": "nonce",
              "type": "uint64"
            },
            {
              "components": [
                {
                  "internalType": "uint256",
                  "name": "nativeFee",
                  "type": "uint256"
                },
                {
                  "internalType": "uint256",
                  "name": "lzTokenFee",
                  "type": "uint256"
                }
              ],
              "internalType": "struct MessagingFee",
              "name": "fee",
              "type": "tuple"
            }
          ],
          "internalType": "struct MessagingReceipt",
          "name": "msgReceipt",
          "type": "tuple"
        },
        {
          "components": [
            {
              "internalType": "uint256",
              "name": "amountSentLD",
              "type": "uint256"
            },
            {
              "internalType": "uint256",
              "name": "amountReceivedLD",
              "type": "uint256"
            }
          ],
          "internalType": "struct OFTReceipt",
          "name": "oftReceipt",
          "type": "tuple"
        }
      ],
      "stateMutability": "payable",
      "type": "function"
    },
    {
      "inputs": [
        {
          "internalType": "address",
          "name": "_delegate",
          "type": "address"
        }
      ],
      "name": "setDelegate",
      "outputs": [],
      "stateMutability": "nonpayable",
      "type": "function"
    },
    {
      "inputs": [
        {
          "components": [
            {
              "internalType": "uint32",
              "name": "eid",
              "type": "uint32"
            },
            {
              "internalType": "uint16",
              "name": "msgType",
              "type": "uint16"
            },
            {
              "internalType": "bytes",
              "name": "options",
              "type": "bytes"
            }
          ],
          "internalType": "struct EnforcedOptionParam[]",
          "name": "_enforcedOptions",
          "type": "tuple[]"
        }
      ],
      "name": "setEnforcedOptions",
      "outputs": [],
      "stateMutability": "nonpayable",
      "type": "function"
    },
    {
      "inputs": [
        {
          "internalType": "address",
          "name": "_msgInspector",
          "type": "address"
        }
      ],
      "name": "setMsgInspector",
      "outputs": [],
      "stateMutability": "nonpayable",
      "type": "function"
    },
    {
      "inputs": [
        {
          "internalType": "uint32",
          "name": "_eid",
          "type": "uint32"
        },
        {
          "internalType": "bytes32",
          "name": "_peer",
          "type": "bytes32"
        }
      ],
      "name": "setPeer",
      "outputs": [],
      "stateMutability": "nonpayable",
      "type": "function"
    },
    {
      "inputs": [
        {
          "internalType": "address",
          "name": "_preCrime",
          "type": "address"
        }
      ],
      "name": "setPreCrime",
      "outputs": [],
      "stateMutability": "nonpayable",
      "type": "function"
    },
    {
      "inputs": [],
      "name": "sharedDecimals",
      "outputs": [
        {
          "internalType": "uint8",
          "name": "",
          "type": "uint8"
        }
      ],
      "stateMutability": "view",
      "type": "function"
    },
    {
      "inputs": [],
      "name": "token",
      "outputs": [
        {
          "internalType": "address",
          "name": "",
          "type": "address"
        }
      ],
      "stateMutability": "view",
      "type": "function"
    },
    {
      "inputs": [
        {
          "internalType": "address",
          "name": "newOwner",
          "type": "address"
        }
      ],
      "name": "transferOwnership",
      "outputs": [],
      "stateMutability": "nonpayable",
      "type": "function"
    }
  ],
  "transactionHash": "0xc72e2deca38b236bb0cdba1d286efd2c30091331b7c8bba44e716c3305200eef",
  "args": [
    "ExampleHTS",
    "EHTS",
    "0xbD672D1562Dd32C23B563C989d8140122483631d",
    "0x4c003D0E477B7b6c950912AD1DD0DB6E253522d1"
  ],
  "numDeployments": 1,
  "solcInputHash": "57de4d62c999bda02b831314964c00e4",
  "bytecode": "0x60c060408190526007805460ff60a01b1916600160a01b179055620040a538819003908190833981016040819052620000389162000a20565b838383836008828281818181806001600160a01b0381166200007557604051631e4fbdf760e01b8152600060048201526024015b60405180910390fd5b6200008081620004b2565b506001600160a01b038083166080528116620000af57604051632d618d8160e21b815260040160405180910390fd5b60805160405163ca5eb5e160e01b81526001600160a01b0383811660048301529091169063ca5eb5e190602401600060405180830381600087803b158015620000f757600080fd5b505af11580156200010c573d6000803e3d6000fd5b5050505050505050620001246200050260201b60201c565b60ff168360ff1610156200014b576040516301e9714b60e41b815260040160405180910390fd5b6200015860068462000aca565b6200016590600a62000be3565b60a05250506006602081815260017f54cdd369e4e8a8515e52ca72ec816c2101831ad1f18bf44102ed171459c9b4f881905560027f3e5fec24aa4dc4e5aee2e025e51e1392c72a2500577559fae9665c6d52bd6a315560047f8819ef417987f8ae7a81f42cdfb18815282fe989326fbff903d13cf0e03ace295560087f75f96ab15d697e93042dc45b5c896c4b27e89bb6eaf39475c5c371cb2513f7d25560107fc5069e24aaadb2addc3e52e868fcf3f4f8acf5a87e24300992fd4540c2a87eed557fbfd358e93f18da3ed276c3afdbdba00b8f0b6008a03476a6a86bd6320ee6938b829055600092835260407f697b2bd7bb2984c4e0dc14c79c987d37818484a62958b9c45a0e8b962f20650f81905580518281528082019091529293509082015b62000292620008dc565b81526020019060019003908162000288579050509050620002cc60046000604051806020016040528060008152506200050760201b60201c565b81600081518110620002e257620002e262000c11565b6020908102919091018101919091526040805160608082018352600080835230838601819052627a1200848601528451610120810186528b81528087018b905280860191909152845180860190955260048552636d656d6f60e01b9585019590955290840192909252600754600160a01b900460ff161515608084015261138860a084015260c0830182905260e08301849052610100830181905291908062000390836103e8600862000548565b909250905060168214620003e75760405162461bcd60e51b815260206004820152601a60248201527f4661696c656420746f206372656174652048545320746f6b656e00000000000060448201526064016200006c565b6000620003f98230336103e86200067c565b9050601681146200044d5760405162461bcd60e51b815260206004820152601460248201527f4854533a205472616e73666572206661696c656400000000000000000000000060448201526064016200006c565b600780546001600160a01b0319166001600160a01b0384169081179091556040519081527f2e2b3f61b70d2d131b2a807371103cc98d51adcaa5e9a8f9c32658ad8426e74e9060200160405180910390a1505050505050505050505050505062000ef0565b600080546001600160a01b038381166001600160a01b0319831681178455604051919092169283917f8be0079c531659141344cd1fd0a4f28419497f9722a3daafe3b4186f6b6457e09190a35050565b600690565b62000511620008dc565b60405180604001604052806200052d866200076c60201b60201c565b81526020016200053e8585620007b1565b9052949350505050565b600080848061010001516000015160070b60001480156200057357506101008101516040015160070b155b156200058a576101008101516276a7006040909101525b6000806101676001600160a01b031634630fb65bf360e01b8a8a8a604051602401620005b99392919062000d26565b60408051601f198184030181529181526020820180516001600160e01b03166001600160e01b0319909416939093179092529051620005f9919062000e60565b60006040518083038185875af1925050503d806000811462000638576040519150601f19603f3d011682016040523d82523d6000602084013e6200063d565b606091505b50915091508162000652576015600062000668565b8080602001905181019062000668919062000e96565b60039190910b999098509650505050505050565b604080516001600160a01b038681166024830152858116604483015284166064820152600783900b6084808301919091528251808303909101815260a490910182526020810180516001600160e01b031663eca3691760e01b17905290516000918291829161016791620006f1919062000e60565b6000604051808303816000865af19150503d806000811462000730576040519150601f19603f3d011682016040523d82523d6000602084013e62000735565b606091505b509150915081620007485760156200075e565b808060200190518101906200075e919062000ed2565b60030b979650505050505050565b60006006600083600681111562000787576200078762000bfb565b60068111156200079b576200079b62000bfb565b8152602001908152602001600020549050919050565b620007f86040518060a0016040528060001515815260200160006001600160a01b03168152602001606081526020016060815260200160006001600160a01b031681525090565b60008360048111156200080f576200080f62000bfb565b036200081f5760018152620008d6565b600183600481111562000836576200083662000bfb565b0362000853576005546001600160a01b03166020820152620008d6565b60028360048111156200086a576200086a62000bfb565b036200087d5760408101829052620008d6565b600383600481111562000894576200089462000bfb565b03620008a75760608101829052620008d6565b6004836004811115620008be57620008be62000bfb565b03620008d6576005546001600160a01b031660808201525b92915050565b604051806040016040528060008152602001620009356040518060a0016040528060001515815260200160006001600160a01b03168152602001606081526020016060815260200160006001600160a01b031681525090565b905290565b634e487b7160e01b600052604160045260246000fd5b60005b838110156200096d57818101518382015260200162000953565b50506000910152565b600082601f8301126200098857600080fd5b81516001600160401b0380821115620009a557620009a56200093a565b604051601f8301601f19908116603f01168101908282118183101715620009d057620009d06200093a565b81604052838152866020858801011115620009ea57600080fd5b620009fd84602083016020890162000950565b9695505050505050565b6001600160a01b038116811462000a1d57600080fd5b50565b6000806000806080858703121562000a3757600080fd5b84516001600160401b038082111562000a4f57600080fd5b62000a5d8883890162000976565b9550602087015191508082111562000a7457600080fd5b5062000a838782880162000976565b935050604085015162000a968162000a07565b606086015190925062000aa98162000a07565b939692955090935050565b634e487b7160e01b600052601160045260246000fd5b60ff8281168282160390811115620008d657620008d662000ab4565b600181815b8085111562000b2757816000190482111562000b0b5762000b0b62000ab4565b8085161562000b1957918102915b93841c939080029062000aeb565b509250929050565b60008262000b4057506001620008d6565b8162000b4f57506000620008d6565b816001811462000b68576002811462000b735762000b93565b6001915050620008d6565b60ff84111562000b875762000b8762000ab4565b50506001821b620008d6565b5060208310610133831016604e8410600b841016171562000bb8575081810a620008d6565b62000bc4838362000ae6565b806000190482111562000bdb5762000bdb62000ab4565b029392505050565b600062000bf460ff84168362000b2f565b9392505050565b634e487b7160e01b600052602160045260246000fd5b634e487b7160e01b600052603260045260246000fd5b6000815180845262000c4181602086016020860162000950565b601f01601f19169290920160200192915050565b600082825180855260208086019550808260051b84010181860160005b8481101562000d1957858303601f1901895281518051845284015160408585018190528151151581860152818601516001600160a01b039081166060808801919091529183015160a0608080890182905291939092909162000cd860e08a018662000c27565b92860151898403603f1901858b015292945062000cf6858462000c27565b9501511660c0979097019690965250509884019892509083019060010162000c72565b5090979650505050505050565b606081526000845161016080606085015262000d476101c085018362000c27565b91506020870151605f198086850301608087015262000d67848362000c27565b93506040890151915062000d8660a08701836001600160a01b03169052565b60608901519150808685030160c087015262000da3848362000c27565b93506080890151915062000dbb60e087018315159052565b60a0890151915061010062000dd48188018460070b9052565b60c08a0151151561012088015260e08a01518786038301610140890152925062000dff858462000c55565b9450808a01519250505062000e3a828601828051600790810b83526020808301516001600160a01b031690840152604091820151900b910152565b5050600785900b6020840152905062000e58604083018460030b9052565b949350505050565b6000825162000e7481846020870162000950565b9190910192915050565b8051600381900b811462000e9157600080fd5b919050565b6000806040838503121562000eaa57600080fd5b62000eb58362000e7e565b9150602083015162000ec78162000a07565b809150509250929050565b60006020828403121562000ee557600080fd5b62000bf48262000e7e565b60805160a05161314962000f5c6000396000818161053901528181611824015281816118a00152611a8001526000818161041b015281816107c201528181610e9801528181611105015281816113930152818161174801528181611d1c0152611dd501526131496000f3fe6080604052600436106102045760003560e01c80637d25a05e11610118578063bc70b354116100a0578063d045a0dc1161006f578063d045a0dc1461065e578063d424388514610671578063f2fde38b14610691578063fc0c546a146106b1578063ff7bd03d146106cf57600080fd5b8063bc70b354146105ea578063bd815db01461060a578063c7c7f5b31461061d578063ca5eb5e11461063e57600080fd5b8063963efcaa116100e7578063963efcaa146105275780639f68b96414610569578063b731ea0a1461057d578063b98bd0701461059d578063bb0b6a53146105bd57600080fd5b80637d25a05e1461049257806382413eac146104cd578063857749b0146104ed5780638da5cb5b1461050957600080fd5b80633400288b1161019b5780635a0dfe4d1161016a5780635a0dfe4d146103d25780635e280f11146104095780636fc1b31e1461043d578063715018a61461045d5780637796c4771461047257600080fd5b80633400288b146103455780633b6f743b1461036557806352ae2879146103925780635535d461146103a557600080fd5b80631439dc4c116101d75780631439dc4c146102b6578063156a0d0f146102e757806317442b701461030e5780631f5e13341461033057600080fd5b80630d35b41514610209578063111ecdad1461024157806313137d6514610279578063134d4f251461028e575b600080fd5b34801561021557600080fd5b50610229610224366004612028565b6106ef565b604051610238939291906120ac565b60405180910390f35b34801561024d57600080fd5b50600454610261906001600160a01b031681565b6040516001600160a01b039091168152602001610238565b61028c6102873660046121b4565b6107c0565b005b34801561029a57600080fd5b506102a3600281565b60405161ffff9091168152602001610238565b3480156102c257600080fd5b506007546102d790600160a01b900460ff1681565b6040519015158152602001610238565b3480156102f357600080fd5b506040805162b9270b60e21b81526001602082015201610238565b34801561031a57600080fd5b5060408051600181526002602082015201610238565b34801561033c57600080fd5b506102a3600181565b34801561035157600080fd5b5061028c61036036600461226c565b610880565b34801561037157600080fd5b506103856103803660046122a4565b610896565b60405161023891906122f5565b34801561039e57600080fd5b5030610261565b3480156103b157600080fd5b506103c56103c036600461231e565b6108ff565b6040516102389190612351565b3480156103de57600080fd5b506102d76103ed36600461226c565b63ffffffff919091166000908152600160205260409020541490565b34801561041557600080fd5b506102617f000000000000000000000000000000000000000000000000000000000000000081565b34801561044957600080fd5b5061028c610458366004612364565b6109a4565b34801561046957600080fd5b5061028c610a01565b34801561047e57600080fd5b50600754610261906001600160a01b031681565b34801561049e57600080fd5b506104b56104ad36600461226c565b600092915050565b6040516001600160401b039091168152602001610238565b3480156104d957600080fd5b506102d76104e8366004612381565b610a15565b3480156104f957600080fd5b5060405160068152602001610238565b34801561051557600080fd5b506000546001600160a01b0316610261565b34801561053357600080fd5b5061055b7f000000000000000000000000000000000000000000000000000000000000000081565b604051908152602001610238565b34801561057557600080fd5b5060006102d7565b34801561058957600080fd5b50600254610261906001600160a01b031681565b3480156105a957600080fd5b5061028c6105b836600461242b565b610a2a565b3480156105c957600080fd5b5061055b6105d836600461246c565b60016020526000908152604090205481565b3480156105f657600080fd5b506103c5610605366004612487565b610a44565b61028c61061836600461242b565b610bec565b61063061062b3660046124e7565b610d76565b604051610238929190612554565b34801561064a57600080fd5b5061028c610659366004612364565b610e71565b61028c61066c3660046121b4565b610ef7565b34801561067d57600080fd5b5061028c61068c366004612364565b610f26565b34801561069d57600080fd5b5061028c6106ac366004612364565b610f7c565b3480156106bd57600080fd5b506007546001600160a01b0316610261565b3480156106db57600080fd5b506102d76106ea3660046125a6565b610fba565b60408051808201909152600080825260208201526060610722604051806040016040528060008152602001600081525090565b60408051808201825260008082526001600160401b0360208084018290528451838152908101909452919550918261077d565b6040805180820190915260008152606060208201528152602001906001900390816107555790505b5093506000806107a2604089013560608a013561079d60208c018c61246c565b610ff0565b60408051808201909152918252602082015296989597505050505050565b7f00000000000000000000000000000000000000000000000000000000000000006001600160a01b03163314610810576040516391ac5e4f60e01b81523360048201526024015b60405180910390fd5b6020870180359061082a90610825908a61246c565b611034565b146108685761083c602088018861246c565b60405163309afaf360e21b815263ffffffff909116600482015260208801356024820152604401610807565b61087787878787878787611070565b50505050505050565b6108886111d7565b6108928282611204565b5050565b604080518082019091526000808252602082015260006108c66040850135606086013561079d602088018861246c565b9150506000806108d68684611259565b90925090506108f36108eb602088018861246c565b83838861137d565b93505050505b92915050565b600360209081526000928352604080842090915290825290208054610923906125d8565b80601f016020809104026020016040519081016040528092919081815260200182805461094f906125d8565b801561099c5780601f106109715761010080835404028352916020019161099c565b820191906000526020600020905b81548152906001019060200180831161097f57829003601f168201915b505050505081565b6109ac6111d7565b600480546001600160a01b0319166001600160a01b0383169081179091556040519081527ff0be4f1e87349231d80c36b33f9e8639658eeaf474014dee15a3e6a4d4414197906020015b60405180910390a150565b610a096111d7565b610a13600061145e565b565b6001600160a01b03811630145b949350505050565b610a326111d7565b610892610a3f82846126d0565b6114ae565b63ffffffff8416600090815260036020908152604080832061ffff87168452909152812080546060929190610a78906125d8565b80601f0160208091040260200160405190810160405280929190818152602001828054610aa4906125d8565b8015610af15780601f10610ac657610100808354040283529160200191610af1565b820191906000526020600020905b815481529060010190602001808311610ad457829003601f168201915b505050505090508051600003610b415783838080601f016020809104026020016040519081016040528093929190818152602001838380828437600092019190915250929450610a229350505050565b6000839003610b51579050610a22565b60028310610bcf57610b9884848080601f0160208091040260200160405190810160405280939291908181526020018383808284376000920191909152506115b592505050565b80610ba684600281886127de565b604051602001610bb893929190612808565b604051602081830303815290604052915050610a22565b8383604051639a6d49cd60e01b8152600401610807929190612859565b60005b81811015610cf55736838383818110610c0a57610c0a61286d565b9050602002810190610c1c9190612883565b9050610c4f610c2e602083018361246c565b602083013563ffffffff919091166000908152600160205260409020541490565b610c595750610ced565b3063d045a0dc60c08301358360a0810135610c786101008301836128a4565b610c89610100890160e08a01612364565b610c976101208a018a6128a4565b6040518963ffffffff1660e01b8152600401610cb997969594939291906128ff565b6000604051808303818588803b158015610cd257600080fd5b505af1158015610ce6573d6000803e3d6000fd5b5050505050505b600101610bef565b50336001600160a01b0316638e9e70996040518163ffffffff1660e01b8152600401600060405180830381865afa158015610d34573d6000803e3d6000fd5b505050506040513d6000823e601f3d908101601f19168201604052610d5c9190810190612985565b604051638351eea760e01b81526004016108079190612351565b610d7e611fc9565b6040805180820190915260008082526020820152600080610db533604089013560608a0135610db060208c018c61246c565b6115e1565b91509150600080610dc68984611259565b9092509050610df2610ddb60208b018b61246c565b8383610dec368d90038d018d6129f2565b8b611715565b60408051808201909152858152602080820186905282519298509096503391907f85496b760a4b7f8d66384b9df21b381f5d1b1e79f229a47aaf4c232edc2fe59a90610e40908d018d61246c565b6040805163ffffffff909216825260208201899052810187905260600160405180910390a350505050935093915050565b610e796111d7565b60405163ca5eb5e160e01b81526001600160a01b0382811660048301527f0000000000000000000000000000000000000000000000000000000000000000169063ca5eb5e190602401600060405180830381600087803b158015610edc57600080fd5b505af1158015610ef0573d6000803e3d6000fd5b5050505050565b333014610f175760405163029a949d60e31b815260040160405180910390fd5b61087787878787878787610868565b610f2e6111d7565b600280546001600160a01b0319166001600160a01b0383169081179091556040519081527fd48d879cef83a1c0bdda516f27b13ddb1b3f8bbac1c9e1511bb2a659c2427760906020016109f6565b610f846111d7565b6001600160a01b038116610fae57604051631e4fbdf760e01b815260006004820152602401610807565b610fb78161145e565b50565b6000602082018035906001908390610fd2908661246c565b63ffffffff1681526020810191909152604001600020541492915050565b600080610ffc85611820565b91508190508381101561102c576040516371c4efed60e01b81526004810182905260248101859052604401610807565b935093915050565b63ffffffff8116600090815260016020526040812054806108f95760405163f6ff4fb760e01b815263ffffffff84166004820152602401610807565b600061108261107f8787611857565b90565b905060006110ae8261109c6110978a8a611876565b611899565b6110a960208d018d61246c565b6118ce565b905060288611156111755760006110eb6110ce60608c0160408d01612a24565b6110db60208d018d61246c565b846110e68c8c6119fc565b611a47565b604051633e5ac80960e11b81529091506001600160a01b037f00000000000000000000000000000000000000000000000000000000000000001690637cb59012906111419086908d906000908790600401612a41565b600060405180830381600087803b15801561115b57600080fd5b505af115801561116f573d6000803e3d6000fd5b50505050505b6001600160a01b038216887fefed6d3500546b29533b128a29e3a94d70788727f0507505ac12eaf2e578fd9c6111ae60208d018d61246c565b6040805163ffffffff9092168252602082018690520160405180910390a3505050505050505050565b6000546001600160a01b03163314610a135760405163118cdaa760e01b8152336004820152602401610807565b63ffffffff8216600081815260016020908152604091829020849055815192835282018390527f238399d427b947898edb290f5ff0f9109849b1c3ba196a42e35f00c50a54b98b910160405180910390a15050565b60608060006112b6856020013561126f86611a79565b61127c60a08901896128a4565b8080601f016020809104026020016040519081016040528093929190818152602001838380828437600092019190915250611aa592505050565b90935090506000816112c95760016112cc565b60025b90506112ec6112de602088018861246c565b8261060560808a018a6128a4565b6004549093506001600160a01b031615611374576004805460405163043a78eb60e01b81526001600160a01b039091169163043a78eb91611331918891889101612a7c565b602060405180830381865afa15801561134e573d6000803e3d6000fd5b505050506040513d601f19601f820116820180604052508101906113729190612aa1565b505b50509250929050565b60408051808201909152600080825260208201527f00000000000000000000000000000000000000000000000000000000000000006001600160a01b031663ddc28c586040518060a001604052808863ffffffff1681526020016113e089611034565b8152602001878152602001868152602001851515815250306040518363ffffffff1660e01b8152600401611415929190612abe565b6040805180830381865afa158015611431573d6000803e3d6000fd5b505050506040513d601f19601f820116820180604052508101906114559190612b67565b95945050505050565b600080546001600160a01b038381166001600160a01b0319831681178455604051919092169283917f8be0079c531659141344cd1fd0a4f28419497f9722a3daafe3b4186f6b6457e09190a35050565b60005b8151811015611585576114e08282815181106114cf576114cf61286d565b6020026020010151604001516115b5565b8181815181106114f2576114f261286d565b602002602001015160400151600360008484815181106115145761151461286d565b60200260200101516000015163ffffffff1663ffffffff168152602001908152602001600020600084848151811061154e5761154e61286d565b60200260200101516020015161ffff1661ffff168152602001908152602001600020908161157c9190612bd4565b506001016114b1565b507fbe4864a8e820971c0247f5992e2da559595f7bf076a21cb5928d443d2a13b674816040516109f69190612c93565b600281015161ffff81166003146108925781604051639a6d49cd60e01b81526004016108079190612351565b600080677fffffffffffffff85111561160c5760405162461bcd60e51b815260040161080790612d1e565b611617858585610ff0565b6007549193509150600090611637906001600160a01b0316883089611b1f565b9050601681146116805760405162461bcd60e51b8152602060048201526014602482015273121514ce88151c985b9cd9995c8819985a5b195960621b6044820152606401610807565b6007546000906116c4906001600160a01b031685836040519080825280602002602001820160405280156116be578160200160208202803683370190505b50611c07565b5090506016811461170a5760405162461bcd60e51b815260206004820152601060248201526f121514ce88109d5c9b8819985a5b195960821b6044820152606401610807565b505094509492505050565b61171d611fc9565b600061172c8460000151611cf0565b602085015190915015611746576117468460200151611d18565b7f00000000000000000000000000000000000000000000000000000000000000006001600160a01b0316632637a450826040518060a001604052808b63ffffffff1681526020016117968c611034565b81526020018a815260200189815260200160008960200151111515815250866040518463ffffffff1660e01b81526004016117d2929190612abe565b60806040518083038185885af11580156117f0573d6000803e3d6000fd5b50505050506040513d601f19601f820116820180604052508101906118159190612d6b565b979650505050505050565b60007f000000000000000000000000000000000000000000000000000000000000000061184d8184612db5565b6108f99190612dd7565b600061186660208284866127de565b61186f91612dfc565b9392505050565b60006118866028602084866127de565b61188f91612e1a565b60c01c9392505050565b60006108f97f00000000000000000000000000000000000000000000000000000000000000006001600160401b038416612dd7565b6000677fffffffffffffff8311156118f85760405162461bcd60e51b815260040161080790612d1e565b600754600090611946906001600160a01b0316858360405190808252806020026020018201604052801561194057816020015b606081526020019060019003908161192b5790505b50611dfa565b50909150506016811461198e5760405162461bcd60e51b815260206004820152601060248201526f121514ce88135a5b9d0819985a5b195960821b6044820152606401610807565b6007546000906119a9906001600160a01b0316308888611b1f565b9050601681146119f25760405162461bcd60e51b8152602060048201526014602482015273121514ce88151c985b9cd9995c8819985a5b195960621b6044820152606401610807565b5092949350505050565b6060611a0b82602881866127de565b8080601f016020809104026020016040519081016040528093929190818152602001838380828437600092019190915250929695505050505050565b606084848484604051602001611a609493929190612e4a565b6040516020818303038152906040529050949350505050565b60006108f97f000000000000000000000000000000000000000000000000000000000000000083612db5565b8051606090151580611aee578484604051602001611ada92919091825260c01b6001600160c01b031916602082015260280190565b604051602081830303815290604052611b15565b84843385604051602001611b059493929190612e99565b6040516020818303038152906040525b9150935093915050565b604080516001600160a01b038681166024830152858116604483015284166064820152600783900b6084808301919091528251808303909101815260a490910182526020810180516001600160e01b031663eca3691760e01b17905290516000918291829161016791611b929190612edc565b6000604051808303816000865af19150503d8060008114611bcf576040519150601f19603f3d011682016040523d82523d6000602084013e611bd4565b606091505b509150915081611be5576015611bf9565b80806020019051810190611bf99190612f00565b60030b979650505050505050565b6000806000806101676001600160a01b031663d6910d0660e01b888888604051602401611c3693929190612f1b565b60408051601f198184030181529181526020820180516001600160e01b03166001600160e01b0319909416939093179092529051611c749190612edc565b6000604051808303816000865af19150503d8060008114611cb1576040519150601f19603f3d011682016040523d82523d6000602084013e611cb6565b606091505b509150915081611cc95760156000611cdd565b80806020019051810190611cdd9190612f94565b60039190910b9890975095505050505050565b6000813414611d14576040516304fb820960e51b8152346004820152602401610807565b5090565b60007f00000000000000000000000000000000000000000000000000000000000000006001600160a01b031663e4fe1d946040518163ffffffff1660e01b8152600401602060405180830381865afa158015611d78573d6000803e3d6000fd5b505050506040513d601f19601f82011682018060405250810190611d9c9190612fbe565b90506001600160a01b038116611dc5576040516329b99a9560e11b815260040160405180910390fd5b6108926001600160a01b038216337f000000000000000000000000000000000000000000000000000000000000000085611ef8565b60008060606000806101676001600160a01b031663e0f4059a60e01b898989604051602401611e2b93929190612fdb565b60408051601f198184030181529181526020820180516001600160e01b03166001600160e01b0319909416939093179092529051611e699190612edc565b6000604051808303816000865af19150503d8060008114611ea6576040519150601f19603f3d011682016040523d82523d6000602084013e611eab565b606091505b509150915081611ece576040805160008082526020820190925260159190611ee2565b80806020019051810190611ee29190613059565b60039290920b9a90995090975095505050505050565b604080516001600160a01b0385811660248301528416604482015260648082018490528251808303909101815260849091019091526020810180516001600160e01b03166323b872dd60e01b179052611f52908590611f58565b50505050565b600080602060008451602086016000885af180611f7b576040513d6000823e3d81fd5b50506000513d91508115611f93578060011415611fa0565b6001600160a01b0384163b155b15611f5257604051635274afe760e01b81526001600160a01b0385166004820152602401610807565b60405180606001604052806000801916815260200160006001600160401b0316815260200161200b604051806040016040528060008152602001600081525090565b905290565b600060e0828403121561202257600080fd5b50919050565b60006020828403121561203a57600080fd5b81356001600160401b0381111561205057600080fd5b610a2284828501612010565b60005b8381101561207757818101518382015260200161205f565b50506000910152565b6000815180845261209881602086016020860161205c565b601f01601f19169290920160200192915050565b8351815260208085015190820152600060a08201604060a0604085015281865180845260c08601915060c08160051b8701019350602080890160005b838110156121275788870360bf1901855281518051885283015183880187905261211487890182612080565b97505093820193908201906001016120e8565b50508751606088015250505060208501516080850152509050610a22565b60006060828403121561202257600080fd5b60008083601f84011261216957600080fd5b5081356001600160401b0381111561218057600080fd5b60208301915083602082850101111561219857600080fd5b9250929050565b6001600160a01b0381168114610fb757600080fd5b600080600080600080600060e0888a0312156121cf57600080fd5b6121d98989612145565b96506060880135955060808801356001600160401b03808211156121fc57600080fd5b6122088b838c01612157565b909750955060a08a0135915061221d8261219f565b90935060c0890135908082111561223357600080fd5b506122408a828b01612157565b989b979a50959850939692959293505050565b803563ffffffff8116811461226757600080fd5b919050565b6000806040838503121561227f57600080fd5b61228883612253565b946020939093013593505050565b8015158114610fb757600080fd5b600080604083850312156122b757600080fd5b82356001600160401b038111156122cd57600080fd5b6122d985828601612010565b92505060208301356122ea81612296565b809150509250929050565b8151815260208083015190820152604081016108f9565b803561ffff8116811461226757600080fd5b6000806040838503121561233157600080fd5b61233a83612253565b91506123486020840161230c565b90509250929050565b60208152600061186f6020830184612080565b60006020828403121561237657600080fd5b813561186f8161219f565b60008060008060a0858703121561239757600080fd5b6123a18686612145565b935060608501356001600160401b038111156123bc57600080fd5b6123c887828801612157565b90945092505060808501356123dc8161219f565b939692955090935050565b60008083601f8401126123f957600080fd5b5081356001600160401b0381111561241057600080fd5b6020830191508360208260051b850101111561219857600080fd5b6000806020838503121561243e57600080fd5b82356001600160401b0381111561245457600080fd5b612460858286016123e7565b90969095509350505050565b60006020828403121561247e57600080fd5b61186f82612253565b6000806000806060858703121561249d57600080fd5b6124a685612253565b93506124b46020860161230c565b925060408501356001600160401b038111156124cf57600080fd5b6124db87828801612157565b95989497509550505050565b600080600083850360808112156124fd57600080fd5b84356001600160401b0381111561251357600080fd5b61251f87828801612010565b9450506040601f198201121561253457600080fd5b5060208401915060608401356125498161219f565b809150509250925092565b600060c082019050835182526001600160401b036020850151166020830152604084015161258f604084018280518252602090810151910152565b5082516080830152602083015160a083015261186f565b6000606082840312156125b857600080fd5b61186f8383612145565b634e487b7160e01b600052604160045260246000fd5b600181811c908216806125ec57607f821691505b60208210810361202257634e487b7160e01b600052602260045260246000fd5b604051606081016001600160401b038111828210171561262e5761262e6125c2565b60405290565b604080519081016001600160401b038111828210171561262e5761262e6125c2565b604051601f8201601f191681016001600160401b038111828210171561267e5761267e6125c2565b604052919050565b60006001600160401b0382111561269f5761269f6125c2565b5060051b60200190565b60006001600160401b038211156126c2576126c26125c2565b50601f01601f191660200190565b60006126e36126de84612686565b612656565b80848252602080830192508560051b85013681111561270157600080fd5b855b818110156127d25780356001600160401b03808211156127235760008081fd5b8189019150606082360312156127395760008081fd5b61274161260c565b61274a83612253565b815261275786840161230c565b868201526040808401358381111561276f5760008081fd5b939093019236601f85011261278657600092508283fd5b833592506127966126de846126a9565b83815236888587010111156127ab5760008081fd5b83888601898301376000938101880193909352810191909152865250938201938201612703565b50919695505050505050565b600080858511156127ee57600080fd5b838611156127fb57600080fd5b5050820193919092039150565b6000845161281a81846020890161205c565b8201838582376000930192835250909392505050565b81835281816020850137506000828201602090810191909152601f909101601f19169091010190565b602081526000610a22602083018486612830565b634e487b7160e01b600052603260045260246000fd5b6000823561013e1983360301811261289a57600080fd5b9190910192915050565b6000808335601e198436030181126128bb57600080fd5b8301803591506001600160401b038211156128d557600080fd5b60200191503681900382131561219857600080fd5b6001600160401b0381168114610fb757600080fd5b63ffffffff61290d89612253565b168152602088013560208201526000604089013561292a816128ea565b6001600160401b03811660408401525087606083015260e0608083015261295560e083018789612830565b6001600160a01b03861660a084015282810360c0840152612977818587612830565b9a9950505050505050505050565b60006020828403121561299757600080fd5b81516001600160401b038111156129ad57600080fd5b8201601f810184136129be57600080fd5b80516129cc6126de826126a9565b8181528560208385010111156129e157600080fd5b61145582602083016020860161205c565b600060408284031215612a0457600080fd5b612a0c612634565b82358152602083013560208201528091505092915050565b600060208284031215612a3657600080fd5b813561186f816128ea565b60018060a01b038516815283602082015261ffff83166040820152608060608201526000612a726080830184612080565b9695505050505050565b604081526000612a8f6040830185612080565b82810360208401526114558185612080565b600060208284031215612ab357600080fd5b815161186f81612296565b6040815263ffffffff8351166040820152602083015160608201526000604084015160a06080840152612af460e0840182612080565b90506060850151603f198483030160a0850152612b118282612080565b60809690960151151560c08501525050506001600160a01b039190911660209091015290565b600060408284031215612b4957600080fd5b612b51612634565b9050815181526020820151602082015292915050565b600060408284031215612b7957600080fd5b61186f8383612b37565b601f821115612bcf576000816000526020600020601f850160051c81016020861015612bac5750805b601f850160051c820191505b81811015612bcb57828155600101612bb8565b5050505b505050565b81516001600160401b03811115612bed57612bed6125c2565b612c0181612bfb84546125d8565b84612b83565b602080601f831160018114612c365760008415612c1e5750858301515b600019600386901b1c1916600185901b178555612bcb565b600085815260208120601f198616915b82811015612c6557888601518255948401946001909101908401612c46565b5085821015612c835787850151600019600388901b60f8161c191681555b5050505050600190811b01905550565b600060208083018184528085518083526040925060408601915060408160051b87010184880160005b83811015612d1057888303603f190185528151805163ffffffff1684528781015161ffff16888501528601516060878501819052612cfc81860183612080565b968901969450505090860190600101612cbc565b509098975050505050505050565b6020808252602d908201527f485453436f6e6e6563746f723a20616d6f756e74206578636565647320696e7460408201526c363420736166652072616e676560981b606082015260800190565b600060808284031215612d7d57600080fd5b612d8561260c565b825181526020830151612d97816128ea565b6020820152612da98460408501612b37565b60408201529392505050565b600082612dd257634e487b7160e01b600052601260045260246000fd5b500490565b80820281158282048414176108f957634e487b7160e01b600052601160045260246000fd5b803560208310156108f957600019602084900360031b1b1692915050565b6001600160c01b03198135818116916008851015612e425780818660080360031b1b83161692505b505092915050565b6001600160401b0360c01b8560c01b16815263ffffffff60e01b8460e01b16600882015282600c82015260008251612e8981602c85016020870161205c565b91909101602c0195945050505050565b8481526001600160401b0360c01b8460c01b16602082015282602882015260008251612ecc81604885016020870161205c565b9190910160480195945050505050565b6000825161289a81846020870161205c565b8051600381900b811461226757600080fd5b600060208284031215612f1257600080fd5b61186f82612eee565b60006060820160018060a01b0386168352602060078660070b60208601526060604086015282865180855260808701915060208801945060005b81811015612f73578551840b83529484019491840191600101612f55565b50909998505050505050505050565b8051600781900b811461226757600080fd5b60008060408385031215612fa757600080fd5b612fb083612eee565b915061234860208401612f82565b600060208284031215612fd057600080fd5b815161186f8161219f565b60006060820160018060a01b038616835260208560070b60208501526060604085015281855180845260808601915060808160051b87010193506020870160005b8281101561304a57607f19888703018452613038868351612080565b9550928401929084019060010161301c565b50939998505050505050505050565b60008060006060848603121561306e57600080fd5b61307784612eee565b92506020613086818601612f82565b925060408501516001600160401b038111156130a157600080fd5b8501601f810187136130b257600080fd5b80516130c06126de82612686565b81815260059190911b820183019083810190898311156130df57600080fd5b928401925b82841015613104576130f584612f82565b825292840192908401906130e4565b8095505050505050925092509256fea2646970667358221220650ee535a6a58fbf528e1aac9398871b9b0b4e5884fccb13b8d4db36adaa38f864736f6c63430008160033",
  "devdoc": {
    "errors": {
      "OwnableInvalidOwner(address)": [
        {
          "details": "The owner is not a valid owner account. (eg. `address(0)`)"
        }
      ],
      "OwnableUnauthorizedAccount(address)": [
        {
          "details": "The caller account is not authorized to perform an operation."
        }
      ],
      "SafeERC20FailedOperation(address)": [
        {
          "details": "An operation with an ERC-20 token failed."
        }
      ]
    },
    "events": {
      "PreCrimeSet(address)": {
        "details": "Emitted when the preCrime contract address is set.",
        "params": {
          "preCrimeAddress": "The address of the preCrime contract."
        }
      }
    },
    "kind": "dev",
    "methods": {
      "allowInitializePath((uint32,bytes32,uint64))": {
        "details": "This indicates to the endpoint that the OApp has enabled msgs for this particular path to be received.This defaults to assuming if a peer has been set, its initialized. Can be overridden by the OApp if there is other logic to determine this.",
        "params": {
          "origin": "The origin information containing the source endpoint and sender address."
        },
        "returns": {
          "_0": "Whether the path has been initialized."
        }
      },
      "approvalRequired()": {
        "returns": {
          "_0": "requiresApproval Needs approval of the underlying token implementation."
        }
      },
      "combineOptions(uint32,uint16,bytes)": {
        "details": "If there is an enforced lzReceive option: - {gasLimit: 200k, msg.value: 1 ether} AND a caller supplies a lzReceive option: {gasLimit: 100k, msg.value: 0.5 ether} - The resulting options will be {gasLimit: 300k, msg.value: 1.5 ether} when the message is executed on the remote lzReceive() function.This presence of duplicated options is handled off-chain in the verifier/executor.",
        "params": {
          "_eid": "The endpoint ID.",
          "_extraOptions": "Additional options passed by the caller.",
          "_msgType": "The OAPP message type."
        },
        "returns": {
          "_0": "options The combination of caller specified options AND enforced options."
        }
      },
      "isComposeMsgSender((uint32,bytes32,uint64),bytes,address)": {
        "details": "_origin The origin information containing the source endpoint and sender address.  - srcEid: The source chain endpoint ID.  - sender: The sender address on the src chain.  - nonce: The nonce of the message._message The lzReceive payload.Applications can optionally choose to implement separate composeMsg senders that are NOT the bridging layer.The default sender IS the OAppReceiver implementer.",
        "params": {
          "_sender": "The sender address."
        },
        "returns": {
          "_0": "isSender Is a valid sender."
        }
      },
      "isPeer(uint32,bytes32)": {
        "details": "Check if the peer is considered 'trusted' by the OApp.Enables OAppPreCrimeSimulator to check whether a potential Inbound Packet is from a trusted source.",
        "params": {
          "_eid": "The endpoint ID to check.",
          "_peer": "The peer to check."
        },
        "returns": {
          "_0": "Whether the peer passed is considered 'trusted' by the OApp."
        }
      },
      "lzReceive((uint32,bytes32,uint64),bytes32,bytes,address,bytes)": {
        "details": "Entry point for receiving messages or packets from the endpoint.Entry point for receiving msg/packet from the LayerZero endpoint.",
        "params": {
          "_executor": "The address of the executor for the received message.",
          "_extraData": "Additional arbitrary data provided by the corresponding executor.",
          "_guid": "The unique identifier for the received LayerZero message.",
          "_message": "The payload of the received message.",
          "_origin": "The origin information containing the source endpoint and sender address.  - srcEid: The source chain endpoint ID.  - sender: The sender address on the src chain.  - nonce: The nonce of the message."
        }
      },
      "lzReceiveAndRevert(((uint32,bytes32,uint64),uint32,address,bytes32,uint256,address,bytes,bytes)[])": {
        "details": "Interface for pre-crime simulations. Always reverts at the end with the simulation results.WARNING: MUST revert at the end with the simulation results.Gives the preCrime implementation the ability to mock sending packets to the lzReceive function, WITHOUT actually executing them.",
        "params": {
          "_packets": "An array of InboundPacket objects representing received packets to be delivered."
        }
      },
      "lzReceiveSimulate((uint32,bytes32,uint64),bytes32,bytes,address,bytes)": {
        "details": "Is effectively an internal function because msg.sender must be address(this). Allows resetting the call stack for 'internal' calls.",
        "params": {
          "_executor": "The executor address for the packet.",
          "_extraData": "Additional data for the packet.",
          "_guid": "The unique identifier of the packet.",
          "_message": "The message payload of the packet.",
          "_origin": "The origin information containing the source endpoint and sender address.  - srcEid: The source chain endpoint ID.  - sender: The sender address on the src chain.  - nonce: The nonce of the message."
        }
      },
      "nextNonce(uint32,bytes32)": {
        "details": "_srcEid The source endpoint ID._sender The sender address.The path nonce starts from 1. If 0 is returned it means that there is NO nonce ordered enforcement.Is required by the off-chain executor to determine the OApp expects msg execution is ordered.This is also enforced by the OApp.By default this is NOT enabled. ie. nextNonce is hardcoded to return 0.",
        "returns": {
          "nonce": "The next nonce."
        }
      },
      "oApp()": {
        "details": "Retrieves the address of the OApp contract.The simulator contract is the base contract for the OApp by default.If the simulator is a separate contract, override this function.",
        "returns": {
          "_0": "The address of the OApp contract."
        }
      },
      "oAppVersion()": {
        "returns": {
          "receiverVersion": "The version of the OAppReceiver.sol implementation.",
          "senderVersion": "The version of the OAppSender.sol implementation."
        }
      },
      "oftVersion()": {
        "details": "interfaceId: This specific interface ID is '0x02e49c2c'.version: Indicates a cross-chain compatible msg encoding with other OFTs.If a new feature is added to the OFT cross-chain msg encoding, the version will be incremented. ie. localOFT version(x,1) CAN send messages to remoteOFT version(x,1)",
        "returns": {
          "interfaceId": "The interface ID.",
          "version": "The version."
        }
      },
      "owner()": {
        "details": "Returns the address of the current owner."
      },
      "quoteOFT((uint32,bytes32,uint256,uint256,bytes,bytes,bytes))": {
        "params": {
          "_sendParam": "The parameters for the send operation."
        },
        "returns": {
          "oftFeeDetails": "The details of OFT fees.",
          "oftLimit": "The OFT limit information.",
          "oftReceipt": "The OFT receipt information."
        }
      },
      "quoteSend((uint32,bytes32,uint256,uint256,bytes,bytes,bytes),bool)": {
        "details": "MessagingFee: LayerZero msg fee  - nativeFee: The native fee.  - lzTokenFee: The lzToken fee.",
        "params": {
          "_payInLzToken": "Flag indicating whether the caller is paying in the LZ token.",
          "_sendParam": "The parameters for the send() operation."
        },
        "returns": {
          "msgFee": "The calculated LayerZero messaging fee from the send() operation."
        }
      },
      "renounceOwnership()": {
        "details": "Leaves the contract without owner. It will not be possible to call `onlyOwner` functions. Can only be called by the current owner. NOTE: Renouncing ownership will leave the contract without an owner, thereby disabling any functionality that is only available to the owner."
      },
      "send((uint32,bytes32,uint256,uint256,bytes,bytes,bytes),(uint256,uint256),address)": {
        "details": "Executes the send operation.MessagingReceipt: LayerZero msg receipt  - guid: The unique identifier for the sent message.  - nonce: The nonce of the sent message.  - fee: The LayerZero fee incurred for the message.",
        "params": {
          "_fee": "The calculated fee for the send() operation.      - nativeFee: The native fee.      - lzTokenFee: The lzToken fee.",
          "_refundAddress": "The address to receive any excess funds.",
          "_sendParam": "The parameters for the send operation."
        },
        "returns": {
          "msgReceipt": "The receipt for the send operation.",
          "oftReceipt": "The OFT receipt information."
        }
      },
      "setDelegate(address)": {
        "details": "Only the owner/admin of the OApp can call this function.Provides the ability for a delegate to set configs, on behalf of the OApp, directly on the Endpoint contract.",
        "params": {
          "_delegate": "The address of the delegate to be set."
        }
      },
      "setEnforcedOptions((uint32,uint16,bytes)[])": {
        "details": "Sets the enforced options for specific endpoint and message type combinations.Only the owner/admin of the OApp can call this function.Provides a way for the OApp to enforce things like paying for PreCrime, AND/OR minimum dst lzReceive gas amounts etc.These enforced options can vary as the potential options/execution on the remote may differ as per the msgType. eg. Amount of lzReceive() gas necessary to deliver a lzCompose() message adds overhead you dont want to pay if you are only making a standard LayerZero message ie. lzReceive() WITHOUT sendCompose().",
        "params": {
          "_enforcedOptions": "An array of EnforcedOptionParam structures specifying enforced options."
        }
      },
      "setMsgInspector(address)": {
        "details": "Sets the message inspector address for the OFT.This is an optional contract that can be used to inspect both 'message' and 'options'.Set it to address(0) to disable it, or set it to a contract address to enable it.",
        "params": {
          "_msgInspector": "The address of the message inspector."
        }
      },
      "setPeer(uint32,bytes32)": {
        "details": "Only the owner/admin of the OApp can call this function.Indicates that the peer is trusted to send LayerZero messages to this OApp.Set this to bytes32(0) to remove the peer address.Peer is a bytes32 to accommodate non-evm chains.",
        "params": {
          "_eid": "The endpoint ID.",
          "_peer": "The address of the peer to be associated with the corresponding endpoint."
        }
      },
      "setPreCrime(address)": {
        "details": "Sets the preCrime contract address.",
        "params": {
          "_preCrime": "The address of the preCrime contract."
        }
      },
      "sharedDecimals()": {
        "details": "Retrieves the shared decimals of the OFT.Sets an implicit cap on the amount of tokens, over uint64.max() will need some sort of outbound cap / totalSupply cap Lowest common decimal denominator between chains. Defaults to 6 decimal places to provide up to 18,446,744,073,709.551615 units (max uint64). For tokens exceeding this totalSupply(), they will need to override the sharedDecimals function with something smaller. ie. 4 sharedDecimals would be 1,844,674,407,370,955.1615",
        "returns": {
          "_0": "The shared decimals of the OFT."
        }
      },
      "token()": {
        "details": "Retrieves the address of the underlying HTS implementation.",
        "returns": {
          "_0": "The address of the HTS token."
        }
      },
      "transferOwnership(address)": {
        "details": "Transfers ownership of the contract to a new account (`newOwner`). Can only be called by the current owner."
      }
    },
    "version": 1
  },
  "userdoc": {
    "events": {
      "CallResponseEvent(bool,bytes)": {
        "notice": "Generic event"
      }
    },
    "kind": "user",
    "methods": {
      "allowInitializePath((uint32,bytes32,uint64))": {
        "notice": "Checks if the path initialization is allowed based on the provided origin."
      },
      "approvalRequired()": {
        "notice": "Indicates whether the HTS Connector contract requires approval of the 'token()' to send."
      },
      "combineOptions(uint32,uint16,bytes)": {
        "notice": "Combines options for a given endpoint and message type."
      },
      "endpoint()": {
        "notice": "Retrieves the LayerZero endpoint associated with the OApp."
      },
      "isComposeMsgSender((uint32,bytes32,uint64),bytes,address)": {
        "notice": "Indicates whether an address is an approved composeMsg sender to the Endpoint."
      },
      "nextNonce(uint32,bytes32)": {
        "notice": "Retrieves the next nonce for a given source endpoint and sender address."
      },
      "oAppVersion()": {
        "notice": "Retrieves the OApp version information."
      },
      "oftVersion()": {
        "notice": "Retrieves interfaceID and the version of the OFT."
      },
      "peers(uint32)": {
        "notice": "Retrieves the peer (OApp) associated with a corresponding endpoint."
      },
      "quoteOFT((uint32,bytes32,uint256,uint256,bytes,bytes,bytes))": {
        "notice": "Provides a quote for OFT-related operations."
      },
      "quoteSend((uint32,bytes32,uint256,uint256,bytes,bytes,bytes),bool)": {
        "notice": "Provides a quote for the send() operation."
      },
      "setDelegate(address)": {
        "notice": "Sets the delegate address for the OApp."
      },
      "setPeer(uint32,bytes32)": {
        "notice": "Sets the peer address (OApp instance) for a corresponding endpoint."
      }
    },
    "version": 1
  },
  "storageLayout": {
    "storage": [
      {
        "astId": 3683,
        "contract": "contracts/ExampleHTS.sol:ExampleHTS",
        "label": "_owner",
        "offset": 0,
        "slot": "0",
        "type": "t_address"
      },
      {
        "astId": 64,
        "contract": "contracts/ExampleHTS.sol:ExampleHTS",
        "label": "peers",
        "offset": 0,
        "slot": "1",
        "type": "t_mapping(t_uint32,t_bytes32)"
      },
      {
        "astId": 1903,
        "contract": "contracts/ExampleHTS.sol:ExampleHTS",
        "label": "preCrime",
        "offset": 0,
        "slot": "2",
        "type": "t_address"
      },
      {
        "astId": 680,
        "contract": "contracts/ExampleHTS.sol:ExampleHTS",
        "label": "enforcedOptions",
        "offset": 0,
        "slot": "3",
        "type": "t_mapping(t_uint32,t_mapping(t_uint16,t_bytes_storage))"
      },
      {
        "astId": 871,
        "contract": "contracts/ExampleHTS.sol:ExampleHTS",
        "label": "msgInspector",
        "offset": 0,
        "slot": "4",
        "type": "t_address"
      },
      {
        "astId": 5360,
        "contract": "contracts/ExampleHTS.sol:ExampleHTS",
        "label": "supplyContract",
        "offset": 0,
        "slot": "5",
        "type": "t_address"
      },
      {
        "astId": 5365,
        "contract": "contracts/ExampleHTS.sol:ExampleHTS",
        "label": "keyTypes",
        "offset": 0,
        "slot": "6",
        "type": "t_mapping(t_enum(KeyType)5373,t_uint256)"
      },
      {
        "astId": 4545,
        "contract": "contracts/ExampleHTS.sol:ExampleHTS",
        "label": "htsTokenAddress",
        "offset": 0,
        "slot": "7",
        "type": "t_address"
      },
      {
        "astId": 4548,
        "contract": "contracts/ExampleHTS.sol:ExampleHTS",
        "label": "finiteTotalSupplyType",
        "offset": 20,
        "slot": "7",
        "type": "t_bool"
      }
    ],
    "types": {
      "t_address": {
        "encoding": "inplace",
        "label": "address",
        "numberOfBytes": "20"
      },
      "t_bool": {
        "encoding": "inplace",
        "label": "bool",
        "numberOfBytes": "1"
      },
      "t_bytes32": {
        "encoding": "inplace",
        "label": "bytes32",
        "numberOfBytes": "32"
      },
      "t_bytes_storage": {
        "encoding": "bytes",
        "label": "bytes",
        "numberOfBytes": "32"
      },
      "t_enum(KeyType)5373": {
        "encoding": "inplace",
        "label": "enum KeyHelper.KeyType",
        "numberOfBytes": "1"
      },
      "t_mapping(t_enum(KeyType)5373,t_uint256)": {
        "encoding": "mapping",
        "key": "t_enum(KeyType)5373",
        "label": "mapping(enum KeyHelper.KeyType => uint256)",
        "numberOfBytes": "32",
        "value": "t_uint256"
      },
      "t_mapping(t_uint16,t_bytes_storage)": {
        "encoding": "mapping",
        "key": "t_uint16",
        "label": "mapping(uint16 => bytes)",
        "numberOfBytes": "32",
        "value": "t_bytes_storage"
      },
      "t_mapping(t_uint32,t_bytes32)": {
        "encoding": "mapping",
        "key": "t_uint32",
        "label": "mapping(uint32 => bytes32)",
        "numberOfBytes": "32",
        "value": "t_bytes32"
      },
      "t_mapping(t_uint32,t_mapping(t_uint16,t_bytes_storage))": {
        "encoding": "mapping",
        "key": "t_uint32",
        "label": "mapping(uint32 => mapping(uint16 => bytes))",
        "numberOfBytes": "32",
        "value": "t_mapping(t_uint16,t_bytes_storage)"
      },
      "t_uint16": {
        "encoding": "inplace",
        "label": "uint16",
        "numberOfBytes": "2"
      },
      "t_uint256": {
        "encoding": "inplace",
        "label": "uint256",
        "numberOfBytes": "32"
      },
      "t_uint32": {
        "encoding": "inplace",
        "label": "uint32",
        "numberOfBytes": "4"
      }
    }
  }
}